:100000000C942A001895000018950000189500001F
:10001000189500001895000018950000189500002C
:10002000189500001895000018950000189500001C
:10003000189500001895000018950000189500000C
:1000400018950000189500001895000018950000FC
:10005000189500008FE58DBFC0E4E8E34E2E84E0E4
:100060008EBFD4E0F4E05F2EEEEFF3E0A0E6B0E068
:1000700088278D933197E9F70E948403662480E8EE
:1000800084BF80E884BF8D9A8C9A83EE8FBD81E017
:100090008EBD81E08EBD83E086B980E487B9379A52
:1000A0008C9A8D9A80E090E0A0E6B0E08D939C93CE
:1000B00080E090E0A2E6B0E08D939C938CE00E94FB
:1000C000D2030E9469038FE715E00E947803E0E6FF
:1000D000F9E00E946203E2E0F0E00E947B030E94EC
:1000E00069038FE711E00E947803E6E6F9E00E94D9
:1000F00062038FEB11E00E947803E8E7F9E00E94C9
:10010000620381E090E090934B0080934A0081E08D
:1001100090E090934900809348000E94FC03A0E681
:10012000B0E00D9388278C93A0E6B0E00D911C9170
:10013000003150E0150711F00C94A0000C948D00D4
:10014000A0E6B0E00D911C9141E050E0040F151FB6
:10015000A0E6B0E00D931C93A0E6B0E00D911C91D9
:10016000013050E0150781E008F480E08F93A0E6AD
:10017000B0E00D911C91033050E0150781E010F0C4
:1001800009F080E09F918923882311F40C94CA0020
:100190000C949601043050E0150711F00C94DA002D
:1001A0000E946903EAE8F9E00E9462030C948D0062
:1001B0000C949601A0E6B0E00D911C91053050E042
:1001C000150781E008F480E08F93A0E6B0E00D9180
:1001D0001C91073050E0150781E010F009F080E035
:1001E0009F918923882311F40C940401A0E6B0E0C8
:1001F0000D911C9141E050E0041B150BA0E6B0E00E
:100200000D931C930C949601083050E0150711F0E3
:100210000C9414010E946903EEE8F9E00E94620365
:100220000C948D000C949601A0E6B0E00D911C9109
:10023000093050E0150781E008F480E08F93A0E6D4
:10024000B0E00D911C910B3050E0150781E010F0EB
:1002500009F080E09F918923882311F40C943E01DA
:10026000A0E6B0E00D911C9142E050E0041B150B9C
:10027000A0E6B0E00D931C930C9496010C3050E076
:10028000150711F00C944E010E946903E2E9F9E0B0
:100290000E9462030C948D000C9496010D3050E086
:1002A000150711F00C9462010E946903E6E9F9E078
:1002B0000E946203E1E0F0E00E947B030C94E10104
:1002C0000C9496010E3050E0150711F00C9470015B
:1002D00080E090E0A0E6B0E08D939C930C949601B2
:1002E0000F3050E0150711F00C94880180E090E089
:1002F000A2E6B0E08D939C9380E090E0A0E6B0E0B1
:100300008D939C930E9469030C9471000C94960148
:10031000003150E0150711F00C9496010E9469031A
:10032000ECE9F9E00E9462030C948D00A2E6B0E0D3
:100330000D911C914AE050E00E943204A2E6B0E028
:100340000D931C93A0E6B0E00D911C91A2E6B0E0E5
:100350004D915C91040F151FA0E6B0E00D931C9326
:10036000A0E6B0E08D919C91A2E6B0E08D939C93C5
:100370000E9469038FE711E00E947803A0E2B4E0D5
:10038000E2E6F0E00E9457040E945A03E0EAF9E036
:100390000E9462038FEB11E00E947803ECEAF9E01F
:1003A0000E9462030E94FC03AAE6B0E00C93009155
:1003B0006A00003111F40C94DF010C94D2010C940A
:1003C0008D0080E4806487B90E943C04ACE6B0E014
:1003D0008D939C938AE090E00E942304ACE6B0E009
:1003E0000D911C9142E050E00E944003ACE6B0E069
:1003F0004D935C930E94FC03A0E6B0E00D93882728
:100400008C93A0E6B0E00D911C9141E050E0040F08
:10041000151FA0E6B0E00D931C93A0E6B0E00D918F
:100420001C910F3050E0150711F00C9419020C9438
:100430000C038FE711E00E947803ECEBF9E00E94D7
:100440006203A0E2B4E0ECE6F0E00E9457040E94F0
:100450005A03EAECF9E00E946203A2E6B0E04D9193
:100460005C91ACE6B0E00D911C910417150718F0F3
:1004700011F00C946F0281E090E090934B00809318
:100480004A0081E090E0909349008093480080E02A
:1004900090E0AEE6B0E08D939C938FEB11E00E946C
:1004A0007803EEECF9E00E946203A0E2B4E0E2E639
:1004B000F0E00E9457040E945A03E4EDF9E00E9424
:1004C0006203A0E2B4E0EEE6F0E00E9457040E946E
:1004D0005A03ECEDF9E00E9462030C94E101A2E6FC
:1004E000B0E04D915C91ACE6B0E00D911C91041729
:1004F000150718F011F00C947F020C948F02ACE6F3
:10050000B0E00D911C91A2E6B0E04D915C91041B0E
:10051000150BA6E6B0E00D931C930E9491020C947B
:10052000E101A6E6B0E00D911C9144E650E00E9486
:100530003204AEE6B0E00D931C93AEE6B0E00D9150
:100540001C9142E350E0040F151FAEE6B0E00D939E
:100550001C93AEE6B0E00D911C910E3F53E01507E1
:1005600018F011F00C94B6020C94D0028FEF93E0C7
:10057000AEE6B0E08D939C938FEB11E00E94780380
:10058000EEECF9E00E946203A0E2B4E0E2E6F0E003
:100590000E9457040E945A03EAEEF9E00E946203A7
:1005A000AEE6B0E00D911C910E3F53E0150718F038
:1005B00011F00C94FB028FEB11E00E947803EEEC3B
:1005C000F9E00E946203A0E2B4E0E2E6F0E00E94FB
:1005D00057040E945A03E4EDF9E00E946203A0E28E
:1005E000B4E0EEE6F0E00E9457040E945A03ECEDFE
:1005F000F9E00E946203AEE6B0E08D919C91909389
:100600004B0080934A00AEE6B0E08D919C919093B0
:10061000490080934800089580E090E0A0E6B0E0B3
:100620008D939C9380E090E0A2E6B0E08D939C9344
:100630000C94710009D00E94320400FC10D008957F
:1006400003D01ED001F8F9CF0024E89457FF02C070
:1006500009D0689400F80BD010F80124089502D056
:1006600009D00895509540954F5F5F4F0895E894E5
:1006700017FF0895009510950F5F1F4F6894089518
:10068000352F242FE894452B11F468940895512FA9
:10069000402F0027112780E1440F551F001F111F15
:1006A000021B130B416018F4020F131F4E7F8A9533
:1006B00099F70895A0E2B4E08D91882311F06CD0F1
:1006C000FBCF08950E944504802D11F065D0FACF2C
:1006D000089581E067D015D080E864C08FE72130AD
:1006E00039F08FEB223021F08FE8233009F08FECC6
:1006F000810F0C94D20388EE93E0A5D03197D9F7FF
:10070000089583E099279FC08AEF90E00E94230418
:10071000BD9ABC9ABB9ABA9AB99AB89AC09885E021
:1007200090E00E942304C198C598C498C39AC29AC5
:10073000C19AEF93FF93E5E1F0E00E94F303FF918C
:10074000EF91C1987DD0C19AEF93FF93E5E1F0E07E
:100750000E94F303FF91EF91C19872D0C19AEF9379
:10076000FF93E5E1F0E00E94F303FF91EF91C19860
:1007700067D0C298C19AEF93FF93E5E1F0E00E9441
:10078000F303FF91EF91C1985BD088E20BD08EE02C
:1007900009D086E007D00895C09A829505D004D08C
:1007A0004FD00895C098F9CF859510F4C29A01C032
:1007B000C298859510F4C39A01C0C398859510F42A
:1007C000C49A01C0C498859510F4C59A01C0C59813
:1007D000C19AEF93FF93E5E1F0E00E94F303FF91EC
:1007E000EF91C19808953197F1F70895689462F8F0
:1007F0000895E89462F8089500E18FEF85BB8FE0DB
:1008000084BB80EF85BB84E18A95F1F79C9B00E077
:100810009D9B04E09E9B08E09F9B0CE080EF84BBC7
:100820008FE085BB84E18A95F1F78827989B80E06B
:10083000999B81E09A9B82E09B9B83E0080F08953F
:1008400081E090E000C0EF93FF93EE27E82BE92BC7
:1008500031F0EAEFF0E03197F1F70197D1F7FF912E
:10086000EF9108950F92B801469F8001479F100DA8
:10087000569F100D0F900895369A3699FECF369AEE
:100880003699FECF84B195B10895C8953196002070
:100890000895000F111F221F331F08950095109512
:1008A000209530950F5F1F4F2F4F3F4F08950191B7
:1008B00010810EC001911191219130810BC00191E5
:1008C000108117FF05C03FEF2FEF04C000811127F3
:1008D0002227332737FF03C0E1DF8DE28D93CF93CB
:1008E000DF93CF92DF92EF92AA24BB24CC24DD24A5
:1008F000EE2440E2CAE0DD2755E093E38881890FCA
:1009000087FD9F7083FD907F891B89935A95A9F776
:10091000C0DFAA1CBB1CCC1CDD1CEE1C4A9551F789
:10092000E894EFE0FF2782910ED0EB30E0F71EF065
:1009300068948A2D0CD088278D93EF90DF90CF900C
:10094000DF91CF910895982F829501D0892F8F70D4
:10095000805D26F0803309F4089568948D9308959E
:1009600048656C6C6F00496E7465726E206E756DB3
:1009700062657220202020002020202020202020BE
:100980002020202020202020200066310000663218
:1009900000006633000073746172740066340000F6
:1009A0002020202020202020202000007075736847
:1009B00020737461727420736574000054454D5047
:1009C000455241545552453D200063202000536557
:1009D000743D0000202070776D3D00002020202015
:1009E00020202020202020202000202070776D3D16
:1009F00066617374202020202020202020202020C9
:060A000020202020200050
:00000001FF
